S02B000061726475465047412D67616D652D636F6E736F6C652D73696D706C652D74616E6B2D64656D6F2E731E
S113000055C000006EC000006CC000006AC0000053
S113001068C0000066C0000064C0000062C0000048
S113002060C000005EC000005CC000005AC0000058
S113003058C0000056C0000054C0000052C0000068
S113004050C000004EC000004CC000004AC0000078
S113005048C0000046C0000044C0000042C0000088
S113006040C000003EC000003CC000003AC0000098
S113007038C0000036C0000034C0000032C00000A8
S113008030C000002EC000002CC000002AC00000B8
S113009028C0000026C0000024C0000022C00000C8
S11300A020C000001EC000001CC0000011241FBEA0
S11300B0CFEFDAE0DEBFCDBF11E0A0E0B1E0E4EDC8
S11300C0FDE002C005900D92AA30B107D9F725E0F2
S11300D0AAE0B1E001C01D92A937B207E1F73DD310
S11300E077C68ECFA4E0B0E0E7E7F0E008C59C0156
S11300F0A0EBB1E0E5D4DC01CB01C297A109B109C1
S113010089839A83AB83BC8389819A81AB81BC81C7
S1130110B7FD12C089819A81AB81BC81AC01BD015C
S1130120415051096109710949835A836B837C8366
S1130130892B8A2B8B2B71F72496E2E0FCC48091E7
S11301400A0190910B01A0910C01B0910D0101964F
S1130150A11DB11D80930A0190930B01A0930C0182
S1130160B0930D0108950F931F93FC0180910A0130
S113017090910B01A0910C01B0910D0104811581A6
S113018026813781800F911FA21FB31F8083918323
S1130190A283B38360871F910F910895FC0180911E
S11301A00A0190910B01A0910C01B0910D014081C5
S11301B0518162817381481759076A077B0720F4CC
S11301C08085811103C0089580E0089580910A011B
S11301D090910B01A0910C01B0910D0144815581C6
S11301E066817781840F951FA61FB71F8083918333
S11301F0A283B38381E008955C985E9894C00895C7
S1130200611102C06EEA01C06FEAF6DF5E9A0895DA
S11302100F931F93CF93DF93EC018B015E9861E200
S1130220EBDF60E0CE01E8DF6FE7CE01E5DF62E2FD
S1130230CE01E2DF60E0CE01DFDF67E0CE01DCDF8C
S11302405C9A40E054E0B801CE017BD05E9A61E054
S1130250CE01D6DFDF91CF911F910F9108950F93B7
S11302601F93CF93DF93EC018B01549A579A5F98B5
S113027082E090E037DF5F9A8AE090E033DF6EEA55
S1130280CE01BADF65EDCE01B7DF60EFCE01B4DF9A
S11302906DE8CE01B1DF64E1CE01AEDF61EACE01EB
S11302A0ABDF68ECCE01A8DF61E8CE01A5DF6FE823
S11302B0CE01A2DF69EDCE019FDF61EFCE019CDFAD
S11302C060E2CE0199DF60E0CE0196DF82E090E04B
S11302D009DF6FEACE0190DFB801C8019C5FFB0122
S11302E01192BF01E817F907D1F75E9ACE0190DFAA
S11302F0DF91CF911F910F910895569A529A239AA4
S1130300089A099A209A559A219A229ADC01ED9129
S1130310FC91119720E520831296ED91FC9113979F
S113032081E080830895FC01A481B5816C93A2814E
S1130330B3818C9187FFFDCF0480F581E02D80810E
S11303400895EF92FF920F931F93CF93DF937C0155
S1130350EB018B01040F151FC017D10721F0699120
S1130360C701E1DFF9CFCDB7DEB7E6E0E0C3EF9236
S1130370FF920F931F93CF93DF93FC01222309F481
S113038079C0A285B3856C93A681B7818C9186FFD1
S1130390FDCF8C9184FD03C0EA0130E00CC0A48140
S11303A0B58183E08C930480F581E02D8081837096
S11303B0E9F782E06CC0CE01841B950B821793078A
S11303C0B8F4A285B38589918C93A681B7818C9169
S11303D086FFFDCF8C9184FFEECFA481B58183E0AD
S11303E08C930480F581E02D80818370E9F7E1CF5F
S11303F0E114F10409F441C0A481B58181E08C9336
S1130400A481B5818C918370E9F7A285B38561607D
S11304106C93A681B7818C9186FFFDCF8C9184FD6E
S113042007C0D80180E090E0A701415051091CC0E9
S1130430A481B58183E08C930480F581E02D8081D3
S11304408370E9F7B6CFC481D5818417950781F00D
S113045022E02883C681D781288127FFFDCFC2856A
S1130460D38528812D9301968E159F0561F705C0CC
S113047026E0EFCFE114F10441F6A481B58183E0D5
S11304808C930480F581E02D80818370E9F7CDB7EA
S1130490DEB7E6E04CC3CF93DF93EC019A01AB01E6
S11304A0220F331F441F551F60E074E284EF90E075
S11304B0C9D221503109E885F9852F3F310519F05A
S11304C010F02FEF30E02083E881F98188E0808309
S11304D0DF91CF910895EF92FF920F931F930097AE
S11304E039F0660FE12CF12C00E010E040DF01C090
S11304F081E01F910F91FF90EF9008959B01AC0153
S113050083E0220F331F441F551F8A95D1F760E003
S113051074E284EF90E096D221503109211580E1F4
S1130520380710F02FEF3FE03093CD002093CC003C
S113053082E08093C80086E08093CA0088E18093BB
S1130540C90008952091C90024FF0BC02091C80060
S113055027FF07C000002091CE00FC01208381E02A
S1130560089580E008958CE291E0A0E0B0E08093EB
S1130570150190931601A0931701B093180180936D
S1130580270190932801A0932901B0932A01809315
S1130590300190933101A0933201B09333018093E1
S11305A01E0190931F01A0932001B093210108958F
S11305B0CF93DF93EC0165E170E081E090E0C6D277
S11305C0FC01892B19F1209729F481E090E09183B3
S11305D080831AC0D383C28388E18483118210820A
S11305E02CEB32E0368325838CED95E09687858766
S11305F030872783908B878732872187928B818BE3
S113060034872387948B838BCF0102C080E090E0F2
S1130610DF91CF9108954F925F926F927F92AF9244
S1130620BF92CF92DF92FF920F931F93CF93DF93EA
S113063000D01F92CDB7DEB78C01F62E0097C1F122
S1130640FC01C280D380C114D10491F1F3E0F61708
S113065078F1FC01E60FF11DE60FF11D25853685C5
S1130660A580B680453B510598F42A01612C712C74
S113067032015524442440E050E060E070E084EB13
S113068090E002D2C301B201FFD12A0D3B1D02C08A
S113069024EB30E0F801F9823A832B8323E0AE01A6
S11306A04F5F5F4F6481C60116DF91E018160CF0AE
S11306B090E0892F0F900F900F90DF91CF911F91B1
S11306C00F91FF90DF90CF90BF90AF907F906F908D
S11306D05F904F900895A3E0B0E0E0E7F3E00FC22D
S11306E0FC01892B99F082819381009779F0623023
S11306F068F46C5F69835A834B8323E0AE014F5FD8
S11307005F4F6481E8DE91E018160CF090E0892FC9
S11307102396E2E010C2A3E0B0E0E0E9F3E0EFC129
S1130720FC01892B99F082819381009779F06230E2
S113073068F46A5F69834A831B8223E0AE014F5FDA
S11307405F4F6481C8DE91E018160CF090E0892FA9
S11307502396E2E0F0C1F3CC0895A1E0B0E0E2EB2F
S1130760F3E0C6C178948BEA93E0E3E0F8E70995F7
S113077082E090E0A0E0B0E08093390190933A01E8
S1130780A0933B01B0933C0188EC90E0A0E0B0E082
S11307908093480590934905A0934A05B0934B056F
S11307A061E084E495E0DFDC8CE490E09093640500
S11307B0809363058DE490E09093660580936505CE
S11307C08EE490E0909368058093670583E695E056
S11307D094DD64E471E083E695E041DD88EB90E02C
S11307E090936A058093690589EB90E090936C057A
S11307F080936B058AEB90E090936E0580936D0572
S11308008BEB90E09093700580936F058CEB90E0F8
S113081090937205809371058DEB90E0909374052D
S11308208093730540EA56E861E070E089E695E05C
S113083032DE89E695E0BCDEFC019093620580938C
S113084061058CEB92E09683858320EB34E0368758
S11308502587908787832CED35E0308B2787928717
S11308608187328B218B94878387348B238B60E041
S113087071EE80E090E042DE76DE0EE311E086E089
S1130880D82E92E0C92E23EBE22EF12C33E0B32EC6
S1130890CE01019657DE882389F0E0911001E630FD
S11308A048F481E08E0F80931001F0E0E25CFE4F8B
S11308B08981808361E085E391E055DC85E391E003
S11308C06DDC882309F4A3C060E085E391E04BDC90
S11308D0809110018630E1F480913E018F3FC1F494
S11308E080913F018535A1F48091400190914101AF
S11308F0909589130DC020914201909143019095E8
S1130900291306C090E0922B90930F0180930E015F
S1130910F8018D2D11928A95E9F7109210018091BA
S11309200E0180FF02C041E007C081FF02C040E029
S11309300EC082FF09C040E060E0809161059091A3
S11309406205E9DE41E00AC083FF1EC041E060E0C9
S11309508091610590916205DEDE40E061E0809166
S1130960610590916205D7DE40E951E060E0809135
S1130970610590916205AFDE40E951E061E080914C
S1130980610590916205A7DE80910E0190910F019F
S113099091FF1BC0809106019091070108979093E5
S11309A0070180930601089734F4B092080110926D
S11309B0070110920601409106015091070160E081
S11309C0809161059091620526DE80910E019091DF
S11309D00F0190FF1CC080910601909107010896B9
S11309E090930701809306018C3A910534F0C092EC
S11309F00801F0920701E09206014091060150912E
S1130A00070160E0809161059091620504DE84E451
S1130A1095E0C4DB882309F43BCF80910E0180FD6F
S1130A2037CF40E050E060E080916105909162052D
S1130A3052DE40E050E061E08091610590916205F2
S1130A404ADE26CFA1E21A2EAA1BBB1BFD010DC054
S1130A50AA1FBB1FEE1FFF1FA217B307E407F5076A
S1130A6020F0A21BB30BE40BF50B661F771F881F46
S1130A70991F1A9469F760957095809590959B01DC
S1130A80AC01BD01CF010895052E97FB16F4009427
S1130A900FD057FD05D0D6DF07FC02D046F408C0BE
S1130AA050954095309521953F4F4F4F5F4F089596
S1130AB090958095709561957F4F8F4F9F4F0895C6
S1130AC0A29FB001B39FC001A39F700D811D11248B
S1130AD0911DB29F700D811D1124911D08952F92B7
S1130AE03F924F925F926F927F928F929F92AF92BA
S1130AF0BF92CF92DF92EF92FF920F931F93CF9307
S1130B00DF93CDB7DEB7CA1BDB0B0FB6F894DEBF9D
S1130B100FBECDBF09942A88398848885F846E84C3
S1130B207D848C849B84AA84B984C884DF80EE800D
S1130B30FD800C811B81AA81B981CE0FD11D0FB616
S1130B40F894DEBF0FBECDBFED0108950F931F9340
S1130B50CF93DF93869F8001879F100D969F100D82
S1130B601124C8010DD0EC01009721F0A80160E028
S1130B7070E027D1CE01DF91CF911F910F9108959D
S1130B800F931F93CF93DF938230910510F482E08B
S1130B9090E0E0917705F091780520E030E0A0E066
S1130BA0B0E0309719F140815181028113814817D7
S1130BB05907C8F08417950769F4109731F0129615
S1130BC00C93129713961C9327C0009377051093E8
S1130BD0780522C02115310519F04217530718F47E
S1130BE09A01BD01EF01DF01F801DBCF21153105C9
S1130BF0F9F0281B390B2430310580F48A819B815C
S1130C006115710521F0FB019383828304C09093E5
S1130C10780580937705FE01329644C0FE01E20F09
S1130C20F31F8193919322503109398328833AC069
S1130C302091750530917605232B41F42091020112
S1130C4030910301309376052093750520910001BE
S1130C50309101012115310541F42DB73EB7409182
S1130C60040150910501241B350BE0917505F091A9
S1130C707605E217F307A0F42E1B3F0B281739075C
S1130C8078F0AC014E5F5F4F2417350748F04E0FE4
S1130C905F1F50937605409375058193919302C02D
S1130CA0E0E0F0E0CF01DF91CF911F910F91089523
S1130CB0CF93DF93009709F481C0FC01329713822C
S1130CC01282A0917705B0917805109781F4208164
S1130CD03181820F931F2091750530917605281775
S1130CE0390751F5F0937605E093750567C0ED017A
S1130CF020E030E0CE17DF0740F44A815B819E019B
S1130D0041155105F1F0EA01F5CFD383C283408147
S1130D105181840F951FC817D90759F48881998187
S1130D20840F951F0296918380838A819B8193838C
S1130D3082832115310529F4F0937805E093770532
S1130D403DC0E901FB83EA8349915991C40FD51F42
S1130D50EC17FD0761F480819181840F951F029641
S1130D60E90199838883828193819B838A83E0E06C
S1130D70F0E012968D919C911397009719F0FD0164
S1130D80DC01F7CF8D919C9111979D012E5F3F4F10
S1130D90820F931F20917505309176052817390726
S1130DA069F4309729F4109278051092770502C0FF
S1130DB013821282B0937605A0937505DF91CF91CB
S1130DC00895DC0101C06D9341505040E0F708954F
S1070DD0F894FFCFC1
S10D0DD40000790520005A00020017
S9030000FC
