S013000061726475465047412D33442E73726563A3
S113000055C000006EC000006CC000006AC0000053
S113001068C0000066C0000064C0000062C0000048
S113002060C000005EC000005CC000005AC0000058
S113003058C0000056C0000054C0000052C0000068
S113004050C000004EC000004CC000004AC0000078
S113005048C0000046C0000044C0000042C0000088
S113006040C000003EC000003CC000003AC0000098
S113007038C0000036C0000034C0000032C00000A8
S113008030C000002EC000002CC000002AC00000B8
S113009028C0000026C0000024C0000022C00000C8
S11300A020C000001EC000001CC0000011241FBEA0
S11300B0CFEFDAE0DEBFCDBF11E0A0E0B1E0ECEFBE
S11300C0F9E002C005900D92AA30B107D9F725E0F6
S11300D0AAE0B1E001C01D92A633B207E1F744D211
S11300E08BC48ECFA4E0B0E0E7E7F0E01CC39C0132
S11300F0A0EBB1E0F9D2DC01CB01C297A109B109AF
S113010089839A83AB83BC8389819A81AB81BC81C7
S1130110B7FD12C089819A81AB81BC81AC01BD015C
S1130120415051096109710949835A836B837C8366
S1130130892B8A2B8B2B71F72496E2E010C35C98F1
S11301405E9894C00895611102C06EEA01C06FEA1E
S1130150F6DF5E9A08950F931F93CF93DF93EC011C
S11301608B015E9861E2EBDF60E0CE01E8DF6FE7D0
S1130170CE01E5DF62E2CE01E2DF60E0CE01DFDF47
S113018067E0CE01DCDF5C9A40E054E0B801CE01C8
S11301907BD05E9A61E0CE01D6DFDF91CF911F91D3
S11301A00F9108950F931F93CF93DF93EC018B016D
S11301B0549A579A5F9882E090E094DF5F9A8AE0BD
S11301C090E090DF6EEACE01BADF65EDCE01B7DFD5
S11301D060EFCE01B4DF6DE8CE01B1DF64E1CE01A2
S11301E0AEDF61EACE01ABDF68ECCE01A8DF61E8E7
S11301F0CE01A5DF6FE8CE01A2DF69EDCE019FDF5E
S113020061EFCE019CDF60E2CE0199DF60E0CE01B8
S113021096DF82E090E066DF6FEACE0190DFB801FE
S1130220C8019C5FFB011192BF01E817F907D1F7E0
S11302305E9ACE0190DFDF91CF911F910F910895C7
S1130240569A529A239A089A099A209A559A219A68
S1130250229ADC01ED91FC91119720E520831296FE
S1130260ED91FC91139781E080830895FC01A481B2
S1130270B5816C93A281B3818C9187FFFDCF0480FB
S1130280F581E02D80810895EF92FF920F931F93E3
S1130290CF93DF937C01EB018B01040F151FC01773
S11302A0D10721F06991C701E1DFF9CFCDB7DEB7FE
S11302B0E6E051C2EF92FF920F931F93CF93DF9327
S11302C0FC01222309F479C0A285B3856C93A6812D
S11302D0B7818C9186FFFDCF8C9184FD03C0EA0128
S11302E030E00CC0A481B58183E08C930480F58157
S11302F0E02D80818370E9F782E06CC0CE01841B1D
S1130300950B82179307B8F4A285B38589918C93D2
S1130310A681B7818C9186FFFDCF8C9184FFEECFAF
S1130320A481B58183E08C930480F581E02D8081E4
S11303308370E9F7E1CFE114F10409F441C0A48129
S1130340B58181E08C93A481B5818C918370E9F7A8
S1130350A285B38561606C93A681B7818C9186FF79
S1130360FDCF8C9184FD07C0D80180E090E0A70107
S1130370415051091CC0A481B58183E08C93048051
S1130380F581E02D80818370E9F7B6CFC481D581F2
S11303908417950781F022E02883C681D7812881BC
S11303A027FFFDCFC285D38528812D9301968E1515
S11303B09F0561F705C026E0EFCFE114F10441F693
S11303C0A481B58183E08C930480F581E02D808144
S11303D08370E9F7CDB7DEB7E6E0BDC1CF93DF9315
S11303E0EC019A01AB01220F331F441F551F60E03B
S11303F074E284EF90E03AD121503109E885F9851F
S11304002F3F310519F010F02FEF30E02083E88101
S1130410F98188E08083DF91CF910895EF92FF9274
S11304200F931F93009739F0660FE12CF12C00E035
S113043010E040DF01C081E01F910F91FF90EF9029
S11304400895CF93DF93EC0165E170E081E090E0E3
S113045091D1FC01892B19F1209729F481E090E0D6
S1130460918380831AC0D383C28388E184831182F9
S113047010822CEB32E0368325838CED95E0968751
S1130480858730872783908B878732872187928B54
S1130490818B34872387948B838BCF0102C080E0C8
S11304A090E0DF91CF9108954F925F926F927F9287
S11304B0AF92BF92CF92DF92FF920F931F93CF938D
S11304C0DF9300D01F92CDB7DEB78C01F62E0097D4
S11304D0C1F1FC01C280D380C114D10491F1F3E0D5
S11304E0F61778F1FC01E60FF11DE60FF11D2585E5
S11304F03685A580B680453B510598F42A01612CC8
S1130500712C32015524442440E050E060E070E056
S113051084EB90E0CDD0C301B201CAD02A0D3B1DBB
S113052002C024EB30E0F801F9823A832B8323E004
S1130530AE014F5F5F4F6481C60170DF91E0181612
S11305400CF090E0892F0F900F900F90DF91CF91D6
S11305501F910F91FF90DF90CF90BF90AF907F904D
S11305606F905F904F9008958CE490E090932105F4
S1130570809320058DE490E09093230580932205D9
S11305808EE490E0909325058093240580E295E025
S113059057DE88EB90E0909327058093260589EB3E
S11305A090E090932905809328058AEB90E090933E
S11305B02B0580932A058BEB90E090932D05809377
S11305C02C058CEB90E090932F0580932E058DEBFA
S11305D090E0909331058093300540EA56E861E05D
S11305E070E086E295E0FADE86E295E02ADF9093F9
S11305F01F0580931E056AE071E080E295E0D2DD7C
S1130600C2E003EB10E0D3E080EA90E06BDD2091E0
S113061008018091060190910701223071F44097FE
S113062090930701809306014097ACF4D09308019E
S113063010920701109206010EC040969093070194
S113064080930601843A910534F0C0930801109315
S1130650070100930601409106015091070160E0F3
S113066080911E0590911F051FDFCECFA1E21A2EA7
S1130670AA1BBB1BFD010DC0AA1FBB1FEE1FFF1F42
S1130680A217B307E407F50720F0A21BB30BE40B92
S1130690F50B661F771F881F991F1A9469F76095D9
S11306A07095809590959B01AC01BD01CF01089593
S11306B0052E97FB16F400940FD057FD05D0D6DF16
S11306C007FC02D046F408C050954095309521951A
S11306D03F4F4F4F5F4F089590958095709561956A
S11306E07F4F8F4F9F4F0895A29FB001B39FC001CA
S11306F0A39F700D811D1124911DB29F700D811D4A
S11307001124911D08952F923F924F925F926F9200
S11307107F928F929F92AF92BF92CF92DF92EF928D
S1130720FF920F931F93CF93DF93CDB7DEB7CA1B0E
S1130730DB0B0FB6F894DEBF0FBECDBF09942A8839
S1130740398848885F846E847D848C849B84AA84E1
S1130750B984C884DF80EE80FD800C811B81AA816E
S1130760B981CE0FD11D0FB6F894DEBF0FBECDBF39
S1130770ED0108950F931F93CF93DF93869F80011C
S1130780879F100D969F100D1124C8010DD0EC0108
S1130790009721F0A80160E070E027D1CE01DF913D
S11307A0CF911F910F9108950F931F93CF93DF93D0
S11307B08230910510F482E090E0E0913405F091EC
S11307C0350520E030E0A0E0B0E0309719F1408139
S11307D051810281138148175907C8F0841795077E
S11307E069F4109731F012960C93129713961C9398
S11307F027C0009334051093350522C02115310517
S113080019F04217530718F49A01BD01EF01DF01F3
S1130810F801DBCF21153105F9F0281B390B243001
S1130820310580F48A819B816115710521F0FB01FA
S11308309383828304C09093350580933405FE012D
S1130840329644C0FE01E20FF31F8193919322502C
S11308503109398328833AC0209132053091330518
S1130860232B41F42091020130910301309333058D
S113087020933205209100013091010121153105A9
S113088041F42DB73EB74091040150910501241B5A
S1130890350BE0913205F0913305E217F307A0F42C
S11308A02E1B3F0B2817390778F0AC014E5F5F4FC2
S11308B02417350748F04E0F5F1F509333054093BC
S11308C032058193919302C0E0E0F0E0CF01DF9123
S11308D0CF911F910F910895CF93DF93009709F45F
S11308E081C0FC01329713821282A0913405B09129
S11308F03505109781F420813181820F931F209157
S11309003205309133052817390751F5F093330533
S1130910E093320567C0ED0120E030E0CE17DF0739
S113092040F44A815B819E0141155105F1F0EA01D1
S1130930F5CFD383C28340815181840F951FC8179B
S1130940D90759F488819981840F951F0296918360
S113095080838A819B81938382832115310529F4C5
S1130960F0933505E09334053DC0E901FB83EA8348
S113097049915991C40FD51FEC17FD0761F480818B
S11309809181840F951F0296E9019983888382815E
S113099093819B838A83E0E0F0E012968D919C9191
S11309A01397009719F0FD01DC01F7CF8D919C910D
S11309B011979D012E5F3F4F820F931F20913205A7
S11309C0309133052817390769F4309729F41092C8
S11309D035051092340502C013821282B093330598
S11309E0A0933205DF91CF910895DC0101C06D938E
S10F09F041505040E0F70895F894FFCF08
S10D09FC0000360520005A00020036
S9030000FC
